:020000040800F2
:1000000000130020ED0100083144000811420008EF
:100010002D440008DD0700080575000800000000F9
:10002000000000000000000000000000414C00083B
:10003000F909000800000000A14B0008994C0008D5
:10004000070200080702000807020008070200086C
:10005000070200080702000807020008070200085C
:10006000070200080702000807020008B908000894
:10007000C908000807020008070200080702000874
:10008000070200080702000807020008070200082C
:10009000B9730008070200080702000807020008F9
:1000A000070200080702000807020008070200080C
:1000B00007020008070200080702000807020008FC
:1000C00007020008070200080702000807020008EC
:1000D00007020008115C0008070200080702000878
:1000E00007020008070200080702000807020008CC
:1000F00007020008070200080702000807020008BC
:1001000007020008070200080702000807020008AB
:10011000070200080702000807020008070200089B
:10012000070200080702000807020008070200088B
:10013000070200080702000807020008070200087B
:10014000070200080702000807020008070200086B
:10015000070200080702000807020008070200085B
:10016000070200080702000807020008070200084B
:10017000070200080702000807020008070200083B
:10018000070200080702000807020008070200082B
:10019000070200080000000007020008070200082C
:1001A000070200080702000807020008070200080B
:1001B00007020008070200080702000807020008FB
:1001C00007020008070200080702000807020008EB
:1001D0000702000807020008DFF80CD000F05AFA06
:1001E0000048004769810008001300200648804746
:1001F00006480047FEE7FEE7FEE7FEE7FEE7FEE70C
:10020000FEE7FEE7FEE7FEE71D4D0008D901000806
:100210002DE9F05F0546002092469B46884606463B
:10022000814640241BE0284641464746224600F0CE
:1002300069F853465A46C01A914110D311461846E0
:10024000224600F050F82D1A67EB01084F4622466F
:100250000120002100F047F817EB00094E41201E55
:10026000A4F10104DFDC484631462A464346BDE896
:10027000F09F40EA01039B0703D009E008C9121F61
:1002800008C0042AFAD203E011F8013B00F8013B50
:10029000521EF9D27047D2B201E000F8012B491E7C
:1002A000FBD270470022F6E710B513460A46044613
:1002B0001946FFF7F0FF204610BD30B50B4601464A
:1002C00000202022012409E021FA02F59D4205D3F5
:1002D00003FA02F5491B04FA02F52844151EA2F19F
:1002E0000102F1DC30BD202A04DB203A00FA02F1E1
:1002F000002070479140C2F1200320FA03F3194314
:1003000090407047202A04DB203A21FA02F00021B5
:10031000704721FA02F3D040C2F120029140084315
:10032000194670472DE9FE4F804681EA0300C00F51
:100330000C46009021F0004123F00045B8EB02008C
:10034000A94105D24046214690461C460B4602462E
:1003500023F00040104347D0270DC7F30A00C3F332
:100360000A510290401A019040286BDAC3F313003F
:1003700040F4801B0098924620B10023D2EB030A80
:1003800063EB0B0B01985946C0F140025046FFF752
:10039000AAFF06460D4650465946019A00F092F9CA
:1003A00010EB08006141002487EA115284EAE773E8
:1003B0001A4340D0009A62B3019A012A4FEA0752C9
:1003C00015DC001B61EB02014FF0004202EA07520C
:1003D000CDE90042001C41F5801132462B4600F069
:1003E00092F903B0BDE8F08F40462146F9E7001BC3
:1003F00061EB0201001C41F5801300185B412018DD
:10040000A2F5001747EB030140EAD570B6196D411C
:1004100011E06D084FEA360645EAC0754FEA07520B
:10042000001B61EB0201001C41F5801149084FEAF5
:1004300030000019514132462B4603B0BDE8F04F61
:1004400000F052B90098012240000023D0EB0202D4
:1004500063EBE073009821464FEAE074B8EB0000CC
:1004600061EB0401E9E783F000435BE781F00041C1
:1004700058E72DE9FE4F81EA030404F0004421F01F
:10048000004100944FF0000B23F0004350EA0104B8
:100490005ED052EA03045BD0C3F30A54C1F30A5599
:1004A0002C44A4F2F3340194A0FB0254C1F31301D1
:1004B00041F48011C3F3130343F4801301FB02449E
:1004C00000FB034E840A970A44EA815447EA8357A3
:1004D000A4FB076802958D0A05FB07854FEA932C5C
:1004E00004FB0C542705029D4FEA065847EA1637CD
:1004F000B5EB08056EEB070C870E920E47EA8117E5
:1005000042EA8312A7FB0201B6EB0B0164EB000485
:100510002B0D43EA0C335E1844EB1C50DA4651466F
:10052000E7FB0201C5F313044FEA0B3343EA14530C
:100530004FEA0432019C43EA0603A4F10C0402943E
:10054000009CCDE900B400F0DEF803B0BDE8F08F08
:1005500000200146F9E72DE9F04D81EA030404F09B
:10056000004B21F0004514464FF0000A23F00041F3
:1005700050EA050220D054EA01021DD0C5F30A5703
:100580000246C5F31303C1F31300C1F30A5640F446
:10059000801543F48013A7EB0608101BD64608F21B
:1005A000FD3873EB050002D308F1010801E0921851
:1005B0005B41B8F1000F03DA00200146BDE8F08D81
:1005C00000204FF48011064684460EE0171B73EBA3
:1005D000050705D3121B63EB050306434CEA010C28
:1005E00049084FEA300092185B4150EA0107EDD10B
:1005F00052EA030012D082EA040083EA05010843AC
:1006000005D0101BAB4106D20122002306E00022D8
:100610004FF0004302E06FF0010253101AEB0600A6
:100620004CEB085110EB0A0041EB0B01BDE8F04D1B
:1006300000F05AB8C1F30A52C1F3130140F2FF337C
:1006400041F480119A4202DA00200146704740F2DC
:1006500033439A42A2F2334202DC5242FFF752BEC7
:10066000FFF741BE30B5041E71F1000404DB4FF00A
:100670000044404264EB0101141E73F1000405DBE9
:100680001C464FF00043524263EB0403994208BFFB
:10069000904230BD1CB509480090094801900546BC
:1006A000009C06E0E06840F0010394E807009847EA
:1006B0001034AC42F6D3FFF793FD0000D0B9000828
:1006C000F0B90008202A06DBCB17203A41FA02F0E5
:1006D00043EAE07306E041FA02F3D040C2F120029F
:1006E000914008431946704710B5141E73F1000479
:1006F00008DA401C41F1000192185B411A4301D114
:1007000020F0010010BD2DE9F04D92469B4611B13D
:10071000B1FA81F202E0B0FA80F220329046FFF79F
:10072000E2FD04460F4640EA0A0041EA0B01534647
:100730005A46084313D0114653EA010019D0C8F1B4
:1007400040025046FFF7DEFD05460E46504659462C
:100750004246FFF7C8FD084305D0012004E02046CB
:100760003946BDE8F08D0020054346EAE0762C438B
:1007700037430A986305E40AA0EB08000022FD0A4B
:1007800044EA47540A3002D500200146E9E7010552
:1007900010196941DDE9084500196941BDE8F04DCE
:1007A000A2E730B58C1810F8012B12F00F0301D11D
:1007B00010F8013B120906D110F8012B03E010F8E4
:1007C000015B01F8015B5B1EF9D101E001F8013B1F
:1007D000521EFBD1A142E6D3002030BDFFE7FEE769
:1007E00080B586B0049003910020ADF80A0004980B
:1007F00020B1FFE70398022804D8FFE70020ADF8F6
:10080000160025E004980399023900F0FFF8ADF8CE
:100810000A009DF80A10049A0398104410F8022C5C
:100820000020914201900DD1FFE79DF80B00049A42
:100830000399114411F8011C401AB0FA80F04009E4
:100840000190FFE7019800F00100ADF81600FFE706
:10085000BDF8160006B080BD80B584B00290ADF83A
:10086000061000208DF80500029828B1FFE7BDF8BA
:100870000600022804DCFFE700208DF80F0017E0D7
:100880000298BDF80610013989B200F0CBF88DF856
:1008900005009DF80500029ABDF80610114411F8F4
:1008A000011C401AB0FA80F040098DF80F00FFE7F4
:1008B0009DF80F0004B080BD80B540F60810C2F26C
:1008C000000000F071F980BD80B540F66810C2F2FA
:1008D000000000F069F980BD84B0039003980068BF
:1008E00040F20741C4F20201884206D8FFE740F611
:1008F0000000C4F20200009005E040F62000C4F2BF
:1009000002000090FFE700980290039800780838F2
:100910004CF6CD41CCF6CC41A0FB01100009019072
:10092000029803994A6C22F00302104488640399E8
:1009300040F68000C4F20200C864019800F01F0174
:10094000012088400399086504B0704782B0019087
:10095000019800790090009940F6FC00C4F2020072
:1009600000EB810001994865019940F64010C4F2FE
:10097000020088650098013800F01F0101208840BE
:100980000199C86502B0704784B00390029101924A
:1009900000930398C16C006D48600398406D28B1C6
:1009A000FFE70398816DC06D4860FFE70398016C15
:1009B000406C00F01F0201209040486000980399AD
:1009C0000968486003988068102809D1FFE70198FA
:1009D000039909688860029803990968C86008E06B
:1009E0000298039909688860019803990968C860AA
:1009F000FFE704B0704700007047000081B0EFF3DC
:100A0000108072B60090FFE7FEE7000080B582B06C
:100A1000019000910198BDF8001006F075FF02B03A
:100A200080BD000080B582B00190ADF80210019841
:100A3000BDF8021006F0AAFF02B080BD82B001909E
:100A400000208DF80300019890F82500022807D0B7
:100A5000FFE701990420C86301208DF803002DE011
:100A600001980168086820F00E0008600198816C08
:100A7000086820F48070086001980168086820F018
:100A8000010008600198016C406C00F01F02012019
:100A9000904048600198C16C006D48600198406DBD
:100AA00058B1FFE70198416D086820F48070086034
:100AB0000198816DC06D4860FFE7FFE70199012053
:100AC00081F82500FFE70199002081F82400FFE765
:100AD0009DF8030002B0704780B582B001900020FD
:100AE0008DF80300019890F82500022811D0FFE747
:100AF00001990420C8630199012081F82500FFE7CE
:100B00000199002081F82400FFE701208DF80300FF
:100B10003FE001980168086820F00E000860019825
:100B20000168086820F0010008600198816C08687D
:100B300020F4807008600198016C406C00F01F0286
:100B40000120904048600198C16C006D4860019898
:100B5000406D58B1FFE70198416D086820F480703E
:100B600008600198816DC06D4860FFE70199012020
:100B700081F82500FFE70199002081F82400FFE7B4
:100B80000198806B20B1FFE70198816B8847FFE7F0
:100B9000FFE79DF8030002B080BD000081B0009027
:100BA0000098C06B01B0704780B584B00390039883
:100BB000006C006802900398006800680190029839
:100BC0000399496C01F01F01C8404007002825D552
:100BD000FFE79DF80400400700281FD5FFE70398B2
:100BE000006800688006002807D4FFE703980168C2
:100BF000086820F004000860FFE70398016C406C6F
:100C000000F01F020420904048600398006B20B160
:100C1000FFE70398016B8847FFE76EE002980399AE
:100C2000496C01F01F01C840800700282FD5FFE75D
:100C30009DF804008007002829D5FFE70398006885
:100C40000068800600280BD4FFE703980168086855
:100C500020F00A0008600399012081F82500FFE7D1
:100C60000398016C406C00F01F0202209040486025
:100C7000FFE70399002081F82400FFE70398C06A8A
:100C800020B1FFE70398C16A8847FFE734E0029884
:100C90000399496C01F01F01C8400007002829D5BD
:100CA000FFE79DF804000007002823D5FFE703981D
:100CB0000168086820F00E0008600398026C406C20
:100CC00000F01F01012000FA01F151600399C8638F
:100CD000039981F82500FFE70399002081F824009B
:100CE000FFE70398406B20B1FFE70398416B88470B
:100CF000FFE700E0FFE7FFE7FFE704B080BD00008B
:100D000080B584B00290029820B9FFE701208DF8E9
:100D10000F009CE00298006840F20741C4F2020113
:100D2000884218D8FFE7029908684FF6F872CBF6A8
:100D3000FD7210444CF6CD42CCF6CC42A0FB020230
:100D40006FF0030000EA9200486402990020C4F2A8
:100D50000200086418E0029908684FF6F832CBF6F2
:100D6000FD7210444CF6CD42CCF6CC42A0FB020200
:100D70006FF0030000EA92004864029940F20040DC
:100D8000C4F202000864FFE70299022081F82500FE
:100D90000298006800680190019847F6F071884356
:100DA000019002998868D1F80CC00B694A6940EA41
:100DB0000C00184310438A691043CA691043096A3A
:100DC000014301980843019001980299096808605D
:100DD0000298FFF781FD02988068B0F5804F04D13A
:100DE000FFE7029900204860FFE702990879896CC3
:100DF00008600298C16C006D48600298406888B134
:100E0000FFE70298406804280CD8FFE70298FFF734
:100E10009DFD0298416D002008600298816DC06DB3
:100E2000486007E0029900204865029988650299A8
:100E3000C865FFE702990020C863029A012182F881
:100E40002510029981F824008DF80F00FFE79DF826
:100E50000F0004B080BD000080B586B004900391FF
:100E60000292019300208DF80300FFE7049890F8A8
:100E70002400012804D1FFE702208DF8170065E067
:100E80000499012081F82400FFE7FFE7049890F817
:100E9000250001284BD1FFE70499022081F82500A5
:100EA00004990020C86304980168086820F00100D4
:100EB000086004980399029A019BFFF765FD049866
:100EC000006B38B1FFE704980168086840F00E0035
:100ED00008600CE004980168086820F004000860CD
:100EE00004980168086840F00A000860FFE7049869
:100EF000806C0068C003002807D5FFE70498816C68
:100F0000086840F480700860FFE70498406D38B1CD
:100F1000FFE70498416D086840F480700860FFE7BF
:100F200004980168086840F00100086009E0FFE7E4
:100F30000499002081F82400FFE702208DF80300C7
:100F4000FFE79DF803008DF81700FFE79DF81700F5
:100F500006B080BD8BB00A90099100200890FFE791
:100F6000099800680899C840002800F0A581FFE7AB
:100F700009980068089A0121914008400790079855
:100F8000002800F09581FFE70998406800F0030011
:100F9000012807D0FFE70998406800F00300022805
:100FA0002FD1FFE70A988068069008984100032037
:100FB00000FA01F10698884306900998C0680899DC
:100FC000490000FA01F106980843069006980A992C
:100FD00088600A98406806900899012000FA01F19B
:100FE00006988843069009984068C0F30010089955
:100FF00000FA01F106980843069006980A9948609D
:10100000FFE70998406800F00300032818D0FFE7C5
:101010000A98C068069008984100032000FA01F180
:10102000069888430690099880680899490000FA54
:1010300001F106980843069006980A99C860FFE7F0
:101040000998406800F00300022826D1FFE70A98BB
:1010500008996FF0030202EA51010844006A069001
:10106000089800F0070081000F2000FA01F10698AF
:101070008843069009980069089901F007018900E2
:1010800000FA01F106980843069006980A99089B11
:1010900002EA530211440862FFE70A9800680690CA
:1010A00008984100032000FA01F106988843069051
:1010B0000998406800F003000899490000FA01F11E
:1010C00006980843069006980A990860099880795E
:1010D0008007002800F0EB80FFE7FFE741F26000A7
:1010E000C4F20200016841F001010160006800F0F3
:1010F000010005900598FFE7089820F003000821FB
:10110000C4F2010140580690089800F003008100E5
:101110000F2000FA01F10698884306900A98B0F172
:10112000904F03D1FFE70020049042E00A9840F27C
:101130000041C4F60001884203D1FFE7012003907B
:1011400034E00A9840F60001C4F60001884203D159
:10115000FFE70220029026E00A9840F60041C4F61C
:101160000001884203D1FFE70320019018E00A98AC
:1011700041F20001C4F60001884203D1FFE70420D8
:1011800000900AE00A9941F20042C4F600020620EB
:10119000914208BF05200090FFE700980190FFE70B
:1011A00001980290FFE702980390FFE703980490EC
:1011B000FFE70498089901F00301890000FA01F1A2
:1011C0000698084306900698089921F00301082222
:1011D000C4F20102885040F20840C4F201000068E5
:1011E0000690079906988843069009988079C0066A
:1011F000002805D5FFE70799069808430690FFE702
:10120000069840F20841C4F20101086040F20C4027
:10121000C4F201000068069007990698884306907A
:10122000099880798006002805D5FFE70799069878
:1012300008430690FFE7069840F20C41C4F2010112
:10124000086040F20440C4F201000068069007996B
:10125000069888430690099880798007002805D56C
:10126000FFE70799069808430690FFE7069840F2C3
:101270000441C4F20101086040F20040C4F20100E0
:101280000068069007990698884306900998807927
:10129000C00728B1FFE70799069808430690FFE7C3
:1012A000069840F20041C4F201010860FFE7FFE741
:1012B00008980130089053E60BB0704782B0019057
:1012C000ADF8021001980069BDF80210084204D080
:1012D000FFE701208DF8010003E000208DF80100F8
:1012E000FFE79DF8010002B07047000083B0029054
:1012F000ADF80610029840690090009ABDF806000B
:1013000002EA0001904340EA01400299886103B07B
:101310007047000082B00190ADF802108DF80120F6
:101320009DF8010028B1FFE7BDF80200019988612E
:1013300004E0BDF8020001998862FFE702B070473F
:1013400040F6F860C2F200000068704740F22810D2
:10135000C2F20000026840F6F861C2F200010868BB
:10136000104408607047000080B582B000208DF8FE
:101370000700032000F09AF80F2000F00DF820B1CC
:10138000FFE701208DF8070002E000F049F8FFE7D1
:101390009DF8070002B080BD80B582B001900020AA
:1013A0008DF8030040F22810C2F20000006878B304
:1013B000FFE740F20400C2F20000006840F228118A
:1013C000C2F200010A684FF47A71B1FBF2F1B0FB8E
:1013D000F1F002F00DF9B0B9FFE701980F280DD830
:1013E000FFE701994FF0FF30002200F047F8019825
:1013F00040F22C11C2F20001086003E001208DF8D8
:101400000300FFE703E001208DF80300FFE703E09E
:1014100001208DF80300FFE79DF8030002B080BDB6
:1014200080B582B0FFE741F26000C4F202000168BB
:1014300041F001010160006800F001000190019895
:10144000FFE7FFE741F25800C4F20200016841F0F3
:1014500080510160006800F0805000900098FFE724
:1014600001F00EF802B080BD80B582B08DF80700A3
:101470009DF9070006F048F802B080BD80B586B03F
:101480008DF817000491039206F056F802909DF92A
:101490001700019002980499039A02F0CBFF0146CD
:1014A000019806F051F806B080BD000080B582B00A
:1014B0000190019806F06AF802B080BD82B00190F8
:1014C00001980068009001990120C1F8D0020199AB
:1014D000002081F8C802009AB2F8541041F00101CE
:1014E000A2F85410009AB2F8541041F00201A2F888
:1014F000541002B07047000082B001908DF80310C4
:1015000002B0704782B001908DF8031002B07047AE
:1015100082B001908DF8031002B0704780B586B09C
:1015200005900491ADF80E20BDF80E00400400288F
:1015300076D5FFE705980068B0F85000049909785F
:1015400000EBC100059909680844B0F802046FF384
:101550009F20ADF80C0004988069BDF80C108842FB
:1015600007D3FFE7BDF80C2004998869801A8861C9
:1015700003E0049900208861FFE704988069F8B9C6
:10158000FFE7FFE7059800680499097830F8210023
:101590004BF68F710840ADF80A00BDF80A0080F4E0
:1015A0000050ADF80A00BDF80A0048F28001084377
:1015B00005990968049A127821F82200FFE7FFE7ED
:1015C000BDF80E00400600281BD5FFE7FFE7FFE748
:1015D000059800680499097830F8210048F68F7161
:1015E0000840ADF80800BDF8080048F2C001084303
:1015F00005990968049A127821F82200FFE7FFE7AD
:10160000FFE7BDF80C0050B1FFE705980068049AA9
:1016100051691289BDF80C3005F0E4FEFFE775E072
:1016200005980068B0F850000499097800EBC100F3
:10163000059909680844B0F806046FF39F20ADF8D7
:101640000C0004988069BDF80C10884207D3FFE7AE
:10165000BDF80C2004998869801A886103E0049918
:1016600000208861FFE704988069F8B9FFE7FFE789
:10167000059800680499097830F821004BF68F71BD
:101680000840ADF80600BDF8060080F40050ADF843
:101690000600BDF8060048F2800108430599096874
:1016A000049A127821F82200FFE7FFE7BDF80E0048
:1016B000400600281BD4FFE7FFE7FFE70598006816
:1016C0000499097830F8210048F68F710840ADF888
:1016D0000400BDF8040048F2C001084305990968F8
:1016E000049A127821F82200FFE7FFE7FFE7BDF830
:1016F0000C0050B1FFE705980068049A51695289BF
:10170000BDF80C3005F06EFEFFE7FFE7BDF80C00FA
:1017100006B080BD80B5A6B025902491ADF88E208E
:10172000BDF88E004006002840F1BA81FFE72598F9
:101730000068B0F850002499097800EBC1002599A1
:1017400009680844B0F802046FF39F20ADF88600E2
:1017500024988069BDF88610884207D9FFE7BDF854
:10176000862024998869801A886103E024990020E2
:101770008861FFE724988069002840F0B080FFE787
:10178000FFE72498407808BBFFE7FFE7259800684B
:10179000209025980068B0F85010209808442090B8
:1017A00020982499097800EBC10000F202401F90B4
:1017B000FFE71F9908886FF39F2008801F9908880A
:1017C00040F400400880FFE7FFE71DE024984078E0
:1017D000012818D1FFE7FFE7259800681D9025989C
:1017E0000068B0F850101D9808441D901D98249969
:1017F000097800EBC10000F202401C901C99002007
:101800000880FFE7FFE7FFE7FFE7FFE725980068AD
:101810001B902498407808BBFFE7FFE725980068F5
:10182000199025980068B0F850101998084419903C
:1018300019982499097800EBC10000F2064018902D
:10184000FFE7189908886FF39F2008801899088887
:1018500040F400400880FFE7FFE718E02498407854
:10186000012813D1FFE725980068B0F850101B98A5
:1018700008441B901B982499097800EBC10000F2E2
:1018800006401A901A9900200880FFE7FFE7FFE75B
:10189000259824990978FFF735FEBDF88E0040049D
:1018A00000281BD5FFE7FFE7FFE72598006824998C
:1018B000097830F8210048F68F710840ADF85A00D9
:1018C000BDF85A004CF28001084325990968249A12
:1018D000127821F82200FFE7FFE7FFE7DFE0BDF81D
:1018E0008E00400400281BD5FFE7FFE7FFE725989F
:1018F00000682499097830F8210048F68F71084073
:10190000ADF85800BDF858004CF280010843259905
:101910000968249A127821F82200FFE7FFE7FFE721
:10192000249890F82400012840F0B880FFE7BDF823
:1019300086202499486910444861BDF8862024997E
:10194000C8691044C86124980169006A884209D3B3
:10195000FFE7249800692290229A2499086A801A45
:10196000086216E02498006A40B9FFE7BDF88600D7
:1019700022902499002081F8240009E02499002075
:1019800081F824002499096A229124990862FFE7CA
:10199000FFE7FFE724984078002856D1FFE7FFE7EC
:1019A00025980068159025980068B0F85010159893
:1019B0000844159015982499097800EBC10000F2AD
:1019C00002401490FFE7149908886FF39F20088065
:1019D00022983F2817D3FFE7FFE72298400913908A
:1019E0009DF88800C00620B9FFE7139801381390CE
:1019F000FFE7139A1499088840EA822040F40040D7
:101A00000880FFE71EE0229830B9FFE714990888A4
:101A100040F40040088014E0FFE72298400813904B
:101A20009DF88800C00720B1FFE71398013013909C
:101A3000FFE7139A1499088840EA82200880FFE79C
:101A4000FFE7FFE7FFE7FFE71DE024984078012864
:101A500018D1FFE7FFE725980068129025980068E5
:101A6000B0F85010129808441290129824990978EE
:101A700000EBC10000F202401190229811990880F9
:101A8000FFE7FFE7FFE7FFE725980068249A516921
:101A90001289BDF8883005F0F7FCFFE7FFE7B6E1F3
:101AA00025980068B0F850002499097800EBC1002F
:101AB000259909680844B0F806046FF39F20ADF833
:101AC000860024988069BDF88610884207D3FFE716
:101AD000BDF8862024998869801A886103E02499DA
:101AE00000208861FFE724988069002840F0B080DA
:101AF000FFE7FFE72498407808BBFFE7FFE725985A
:101B00000068109025980068B0F8501010980844AC
:101B1000109010982499097800EBC10000F202405F
:101B20000F90FFE70F9908886FF39F2008800F99A7
:101B3000088840F400400880FFE7FFE71DE0249894
:101B40004078012818D1FFE7FFE7259800680D903D
:101B500025980068B0F850100D9808440D900D9825
:101B60002499097800EBC10000F202400C900C9916
:101B700000200880FFE7FFE7FFE7FFE7FFE7259882
:101B800000680B902498407808BBFFE7FFE7259892
:101B90000068099025980068B0F85010099808442A
:101BA000099009982499097800EBC10000F20640D9
:101BB0000890FFE7089908886FF39F20088008992C
:101BC000088840F400400880FFE7FFE718E0249809
:101BD0004078012813D1FFE725980068B0F850102D
:101BE0000B9808440B900B982499097800EBC100DE
:101BF00000F206400A900A9900200880FFE7FFE7FC
:101C0000FFE7259824990978FFF77CFCBDF88E0042
:101C1000400400281BD4FFE7FFE7FFE72598006892
:101C20002499097830F8210048F68F710840ADF802
:101C30001A00BDF81A004CF2800108432599096882
:101C4000249A127821F82200FFE7FFE7FFE7DDE0A2
:101C5000BDF88E00400400281BD4FFE7FFE7FFE734
:101C6000259800682499097830F8210048F68F718A
:101C70000840ADF81800BDF818004CF28001084388
:101C800025990968249A127821F82200FFE7FFE7D6
:101C9000FFE7249890F82400012840F0B680FFE781
:101CA000BDF886202499486910444861BDF8862013
:101CB0002499C8691044C86124980169006A88425F
:101CC00009D3FFE7249800692290229A2499086A90
:101CD000801A086216E02498006A40B9FFE7BDF850
:101CE000860022902499002081F8240009E024989D
:101CF000006A2290249900200862249981F8240027
:101D0000FFE7FFE7FFE725980068059024984078F3
:101D1000002856D1FFE7FFE7259800680390259833
:101D20000068B0F850100398084403900398249971
:101D3000097800EBC10000F206400290FFE702992B
:101D400008886FF39F20088022983F2817D3FFE769
:101D5000FFE72298400901909DF88800C00620B94D
:101D6000FFE7019801380190FFE7019A029908887E
:101D700040EA822040F400400880FFE71EE02298FD
:101D800030B9FFE70299088840F40040088014E069
:101D9000FFE72298400801909DF88800C00720B115
:101DA000FFE7019801300190FFE7019A0299088846
:101DB00040EA82200880FFE7FFE7FFE7FFE7FFE751
:101DC00018E024984078012813D1FFE7259800688F
:101DD000B0F85010059808440590059824990978A2
:101DE00000EBC10000F2064004902298049908809C
:101DF000FFE7FFE7FFE725980068249A51695289B9
:101E0000BDF8883005F040FBFFE7FFE7FFE7FFE79D
:101E1000259800682499097830F8210048F6BF71A8
:101E20000840ADF80200BDF8020080F01000ADF8E7
:101E30000200BDF8020080F02000ADF80200BDF8FD
:101E4000020048F28001084325990968249A127813
:101E500021F82200FFE7002026B080BD80B582B0C7
:101E600001900198006805F0B3FA00909DF8010018
:101E70000006002804D5FFE7019802F011FBDFE01F
:101E80009DF801004007002810D5FFE70198016880
:101E9000B1F8440020F48060A1F84400019800F0FB
:101EA000D3F90198002100F0DBF9C9E09DF80100A9
:101EB0004006002809D5FFE701980168B1F8440001
:101EC00020F48040A1F84400BAE09DF801008006AB
:101ED000002809D5FFE701980168B1F8440020F413
:101EE0000050A1F84400ABE09DF80100C0060028B6
:101EF0002AD5FFE701980168B1F8400020F00400FE
:101F0000A1F8400001980168B1F8400020F00800F5
:101F1000A1F84000019890F8C802012808D1FFE715
:101F20000198002180F8C8120198FFF7E5FAFFE751
:101F3000019800F08DF901980168B1F8440020F48F
:101F40008050A1F844007BE09DF8010000070028C4
:101F50001CD5FFE701980168B1F8400040F0080087
:101F6000A1F8400001980168B1F8440020F4006035
:101F7000A1F8440001980168B1F8400040F0040065
:101F8000A1F84000019800F09DF959E09DF800008B
:101F90000006002834D5FFE701980168B1F8440035
:101FA00020F08000A1F84400019890F8C80210BB0E
:101FB000FFE701980168B1F8400040F00400A1F883
:101FC000400001980168B1F8400040F00800A1F815
:101FD00040000198012180F8C81201980068B0F80B
:101FE000540000F0F0008008019AC2F8CC02019879
:101FF000FFF782FA03E0019800F064F9FFE71FE0C1
:102000009DF80100800700280CD5FFE701980168C2
:10201000B1F8440020F40070A1F84400019800F0E9
:102020001BF90DE09DF80100C00748B1FFE70198DA
:102030000168B1F8440020F48070A1F84400FFE783
:1020400002B080BD80B584B00290029820B9FFE74D
:1020500001208DF80F00BBE0029890F8910240B982
:10206000FFE70299002081F89002029800F0B4F88E
:10207000FFE70299032081F891020298006804F0BA
:102080007FFA00208DF80700FFE79DF8070002990E
:102090000979884239DAFFE702989DF8071001EBC9
:1020A000810100EBC101012048749DF807000299ED
:1020B00000EB800201EBC201087402989DF8071042
:1020C00001EB810100EBC1010020C87402999DF869
:1020D000072002EB820201EBC201086202999DF81F
:1020E000072002EB820201EBC201486202999DF8CF
:1020F000072002EB820201EBC2018862FFE79DF834
:10210000070001308DF80700BFE700208DF80700B9
:10211000FFE79DF807000299097988423EDAFFE758
:1021200002989DF8071001EB810100EBC10100202E
:1021300081F851019DF80710029A01EB810302EB2F
:10214000C30282F8501102999DF8072002EB820227
:1021500001EBC20181F8530102999DF8072002EBBF
:10216000820201EBC201C1F8600102999DF80720CB
:1021700002EB820201EBC201C1F8640102999DF8F1
:10218000072002EB820201EBC201C1F86801FFE700
:102190009DF8070001308DF80700BAE7029A106831
:1021A0005168926804F0D8F90299002008730299E6
:1021B000012081F891020298807A012804D1FFE77A
:1021C0000298FFF77BF9FFE700208DF80F00FFE78B
:1021D0009DF80F0004B080BD80B598B0179002A89C
:1021E0005421FEF75FF81798006845F60041C4F2E5
:1021F0000001884226D1FFE74FF4005002900020F2
:10220000119002A800F046F918B1FFE7FEF7F6FBBF
:10221000FFE7FFE741F25800C4F20200016841F411
:1022200000010160006800F4000001900198FFE7E0
:102230001420009000221146FFF720F90098FFF7C4
:1022400013F9FFE718B080BD81B0009001B070476E
:1022500081B0009001B0704781B0009001B070472C
:1022600080B584B002908DF80710FFE7029890F8CF
:102270009002012804D1FFE702208DF80F0019E039
:102280000299012081F89002FFE7FFE79DF807001F
:1022900002990873029800689DF8071005F0E4F8A9
:1022A000FFE70299002081F89002FFE700208DF8F7
:1022B0000F00FFE79DF80F0004B080BD81B00090D3
:1022C00001B0704781B0009001B0704785B00390B5
:1022D000039800285ED1FFE747F20000C4F2000037
:1022E000006800F4C060B0F5806F49D1FFE747F2A5
:1022F0008001C4F20001086820F48070086047F291
:102300000002C4F200021168012060F34A2111604A
:1023100040F20401C2F200010968322251434DF635
:102320008362C4F21B32A1FB022100EB91400290B8
:10233000FFE747F21400C4F20000016800204905DD
:102340000029019006D5FFE70298002818BF012058
:102350000190FFE70198C00720B1FFE7029801381C
:102360000290E6E747F21400C4F20000006840055E
:10237000002804D5FFE703208DF813007CE008E077
:1023800047F28001C4F20001086820F48070086000
:10239000FFE76DE00398B0F5007F5ED1FFE747F2FD
:1023A0000000C4F20000006800F4C060B0F5806F67
:1023B00049D1FFE747F28001C4F20001086840F408
:1023C0008070086047F20002C4F200021168012028
:1023D00060F34A21116040F20401C2F20001096871
:1023E000322251434DF68362C4F21B32A1FB02211B
:1023F00000EB91400290FFE747F21400C4F20000A6
:102400000168002049050029009006D5FFE70298E1
:10241000002818BF01200090FFE70098C00720B1F6
:10242000FFE7029801380290E6E747F21400C4F291
:10243000000000684005002804D5FFE703208DF860
:10244000130019E008E047F28001C4F200010868B7
:1024500040F480700860FFE709E047F20001C4F231
:1024600000010868022262F34A200860FFE7FFE7E4
:1024700000208DF81300FFE79DF8130005B07047AA
:1024800047F20801C4F20001086840F48040086087
:102490007047000080B586B0059000208DF80B00D5
:1024A0008DF80A00059880780007002840F1B58073
:1024B000FFE700208DF8090041F25800C4F2020045
:1024C0000068C000002813D4FFE7FFE741F258007E
:1024D000C4F20200016841F080510160006800F020
:1024E000805001900198FFE701208DF80900FFE777
:1024F00047F20001C4F20001086840F480700860EF
:10250000FEF71EFF0390FFE747F20000C4F2000051
:102510000068C00500280CD4FFE7FEF711FF0399FF
:10252000401A032804D3FFE703208DF80B0000E0D6
:10253000EAE79DF80B0000285BD1FFE741F290002D
:10254000C4F20200006800F4407004900498C8B11E
:10255000FFE704980599096D884213D0FFE741F21F
:102560009001C4F20201086820F4407004900868E9
:1025700040F480300860086820F4803008600498D7
:102580000860FFE79DF81000C007E0B1FFE7FEF725
:10259000D7FE0390FFE741F29000C4F2020000680A
:1025A000800700280ED4FFE7FEF7CAFE0399401A01
:1025B00041F28931884204D3FFE703208DF80B00F4
:1025C00000E0E8E7FFE79DF80B0060B9FFE741F2A4
:1025D0009001C4F20201086820F44070059A126D5F
:1025E0001043086004E09DF80B008DF80A00FFE737
:1025F00004E09DF80B008DF80A00FFE79DF8090044
:10260000012809D1FFE741F25801C4F2020108682C
:1026100020F080500860FFE7FFE705980078C007CA
:1026200060B1FFE741F28801C4F20201086820F0BE
:102630000300059A526810430860FFE70598007888
:10264000800700280CD5FFE741F28801C4F202019F
:10265000086820F00C00059A926810430860FFE7B4
:1026600005980078400700280CD5FFE741F2880163
:10267000C4F20201086820F03000059AD2681043C5
:102680000860FFE705980078000700280CD5FFE7F1
:1026900041F28801C4F20201086820F0C000059AE6
:1026A000126910430860FFE705980078C00600280B
:1026B0000CD5FFE741F28801C4F20201086820F45A
:1026C0004070059A526910430860FFE7059800784A
:1026D000800600280CD5FFE741F28801C4F2020110
:1026E000086820F44060059A926910430860FFE78B
:1026F00005980078400600280CD5FFE741F28801D4
:10270000C4F20201086820F44050059AD2691043CF
:102710000860FFE705980078000600280CD5FFE761
:1027200041F28801C4F20201086820F44040059A91
:10273000126A10430860FFE705984078C00760B14F
:10274000FFE741F28801C4F20201086820F440303A
:10275000059A526A10430860FFE705988078800761
:1027600000280CD5FFE741F29C01C4F20201086881
:1027700020F00300059A926A10430860FFE705986D
:102780004078800700280CD5FFE741F28801C4F2A9
:102790000201086820F44020059AD26A10430860BC
:1027A000FFE705984078400700281BD5FFE741F276
:1027B0008801C4F20201086820F44010059A126BE7
:1027C000104308600598006BB0F5801F09D1FFE742
:1027D00041F20C01C4F20201086840F48010086064
:1027E000FFE7FFE705984078000700281BD5FFE7C3
:1027F00041F28801C4F20201086820F44000059A01
:10280000526B104308600598406BB0F5800F09D1FA
:10281000FFE741F20C01C4F20201086840F48010A5
:102820000860FFE7FFE705984078C00600281BD541
:10283000FFE741F28801C4F20201086820F040700D
:10284000059A926B104308600598806BB0F1807F09
:1028500009D1FFE741F20C01C4F20201086840F41B
:1028600080100860FFE7FFE70598407880060028A1
:102870001BD5FFE741F28801C4F20201086820F08D
:102880004060059AD26B104308600598C06BB0F1A8
:10289000006F09D1FFE741F20C01C4F202010868A0
:1028A00040F480100860FFE7FFE705984078400695
:1028B00000281BD5FFE741F28801C4F20201086835
:1028C00020F04060059A126C104308600598006C77
:1028D000B0F1006F09D1FFE741F20C01C4F202012F
:1028E000086840F480100860FFE7FFE7059840782B
:1028F000000600281BD5FFE741F28801C4F202015F
:10290000086820F04050059A526C10430860059802
:10291000406CB0F1805F09D1FFE741F20C01C4F2D5
:102920000201086840F480300860FFE7FFE705987F
:102930008078C007D8B1FFE741F28801C4F20201F4
:10294000086820F04040059A926C10430860059892
:10295000806CB0F1804F09D1FFE741F20C01C4F265
:102960000201086840F480300860FFE7FFE705983F
:102970008078400700281BD5FFE741F29C01C4F294
:102980000201086820F44010059AD26C10430860D8
:102990000598C06CB0F5001F09D1FFE741F20C01AA
:1029A000C4F20201086840F480100860FFE7FFE706
:1029B0009DF80A0006B080BD80B586B004900391F2
:1029C00000200090049820B9FFE701208DF817003F
:1029D00081E1039842F20001C4F20201096801F0AA
:1029E0000F01884216D9FFE742F20000C4F202004C
:1029F000016821F00F01039A11430160006800F0A3
:102A00000F000399884204D0FFE701208DF81700DA
:102A100061E1FFE704980078C007002800F0A38078
:102A2000FFE704984068032839D1FFE741F200002E
:102A3000C4F2020000688001002804D4FFE70120EE
:102A40008DF8170047E102F0ADF8019001984BF2C4
:102A50000141C0F2C441884220D3FFE741F208009F
:102A6000C4F20200006810F0F00F0AD0FFE70498EB
:102A700000788007002810D5FFE70498806860B9C7
:102A8000FFE741F20801C4F202010868082262F37C
:102A90000710086080200090FFE7FFE738E0049807
:102AA000406802280ED1FFE741F20000C4F20200A4
:102AB00000688003002804D4FFE701208DF8170088
:102AC00009E10DE041F20000C4F202000068400597
:102AD000002804D4FFE701208DF81700FBE0FFE792
:102AE00000F02CF9019001984BF20141C0F2C44171
:102AF00088420CD3FFE741F20801C4F202010868E2
:102B0000082262F30710086080200090FFE7FFE7CB
:102B100041F20801C4F20201086820F00300049A9F
:102B2000526810430860FEF70BFC0290FFE741F289
:102B30000800C4F20200006800F00C000499496823
:102B4000B0EB810F0ED0FFE7FEF7FAFB0299401AB7
:102B500041F28931884204D3FFE703208DF8170042
:102B6000B9E0E4E7FFE704980078800700282CD557
:102B7000FFE7049800784007002809D5FFE741F2F5
:102B80000801C4F20201086840F4E0600860FFE751
:102B900004980078000700280BD5FFE741F20801F0
:102BA000C4F20201086840F4E06020F4605008605C
:102BB000FFE741F20801C4F20201086820F0F000CA
:102BC000049A9268104308600DE00098802809D1AB
:102BD000FFE741F20801C4F20201086820F0F000AA
:102BE0000860FFE7FFE7039842F20001C4F2020128
:102BF000096801F00F01884228D2FFE742F2000184
:102C0000C4F20201086820F00F00039A1043086024
:102C1000FEF796FB0290FFE742F20000C4F20200CA
:102C2000006800F00F00039988420ED0FFE7FEF71E
:102C300087FB0299401A41F28931884204D3FFE7A9
:102C400003208DF8170046E0E6E7FFE704980078D8
:102C5000400700280CD5FFE741F20801C4F2020149
:102C6000086820F4E060049AD26810430860FFE727
:102C700004980078000700280DD5FFE741F208010D
:102C8000C4F20201086820F46050049A126940EA14
:102C9000C2000860FFE700F051F841F20801C4F2F9
:102CA00002010968C9B20A094BF2A861C0F6000125
:102CB000895C01F01F01C84040F20401C2F200012A
:102CC000086040F22C10C2F200000068FEF764FBBE
:102CD0008DF81700FFE79DF8170006B080BD0000D3
:102CE00040F20400C2F200000068704780B5FFF7B0
:102CF000F7FF41F20801C4F202010968C1F30222A0
:102D00004BF2B861C0F60001895C01F01F01C840B8
:102D100080BD000080B5FFF7E3FF41F20801C4F277
:102D200002010968C1F3C2224BF2B861C0F600018A
:102D3000895C01F01F01C84080BD000086B041F2EF
:102D40000800C4F20200006800F00C00042806D15C
:102D5000FFE742F20040C0F2F400019069E041F266
:102D60000800C4F20200006800F00C00082806D138
:102D7000FFE741F60030C0F2B700019058E041F2A1
:102D80000800C4F20200006800F00C000C284BD1CF
:102D9000FFE741F20C00C4F20200016801F00301F8
:102DA00004910068C1B2012000EB11100290049858
:102DB0000090022815D0FFE70098032812D1FFE702
:102DC000029941F60030C0F2B700B0FBF1F041F2D9
:102DD0000C01C4F202010968C1F3062148430590C1
:102DE00011E0FFE7029942F20040C0F2F400B0FBAC
:102DF000F1F041F20C01C4F202010968C1F30621AD
:102E000048430590FFE741F20C00C4F2020000685D
:102E100000F0C061022000EB116003900598039957
:102E2000B0FBF1F0019002E000200190FFE7FFE726
:102E3000FFE7019806B07047B0B588B006900698D5
:102E400020B9FFE701208DF81F00CCE30698007839
:102E5000C007002800F09B80FFE741F20800C4F2A1
:102E60000200006800F00C00049041F20C00C4F273
:102E70000200006800F00300039004980C2804D1BD
:102E8000FFE70398032804D0FFE70498082812D12D
:102E9000FFE741F20000C4F202000068800300284E
:102EA00008D5FFE70698406820B9FFE701208DF8B4
:102EB0001F0098E36AE0FFE706984068B0F5803F9E
:102EC00009D1FFE741F20001C4F20201086840F4B1
:102ED0008030086020E006984068B0F5A02F0DD142
:102EE000FFE741F20001C4F20201086840F48020CB
:102EF0000860086840F4803008600CE041F200018E
:102F0000C4F20201086820F480300860086820F4E8
:102F100080200860FFE7FFE7FFE706984068D0B130
:102F2000FFE7FEF70DFA0590FFE741F20000C4F25B
:102F300002000068800300280CD4FFE7FEF700FAC7
:102F40000599401A652804D3FFE703208DF81F0078
:102F500049E3EAE719E0FEF7F3F90590FFE741F2EC
:102F60000000C4F202000068800300280CD5FFE7CF
:102F7000FEF7E6F90599401A652804D3FFE7032018
:102F80008DF81F002FE3EAE7FFE7FFE7FFE706986A
:102F900000788007002840F19F80FFE741F2080099
:102FA000C4F20200006800F00C00049041F20C0032
:102FB000C4F20200006800F00300039004980C289B
:102FC00004D1FFE70398022804D0FFE704980428FF
:102FD0002CD1FFE741F20000C4F202000068400576
:102FE000002808D5FFE70698C06820B9FFE7012050
:102FF0008DF81F00F7E241F20401C4F202010868F3
:1030000020F0FE40069A126940EA0260086040F231
:103010002C10C2F200000068FEF7BEF920B1FFE7F5
:1030200001208DF81F00DEE2FFE754E00698C0683B
:1030300070B3FFE741F20001C4F20201086840F4F6
:1030400080700860FEF77CF90590FFE741F2000010
:10305000C4F202000068400500280CD4FFE7FEF728
:103060006FF90599401A032804D3FFE703208DF870
:103070001F00B8E2EAE741F20401C4F20201086865
:1030800020F0FE40069A126940EA0260086021E0E2
:1030900041F20001C4F20201086820F48070086067
:1030A000FEF74EF90590FFE741F20000C4F202007E
:1030B0000068400500280CD5FFE7FEF741F90599A7
:1030C000401A032804D3FFE703208DF81F008AE28B
:1030D000EAE7FFE7FFE7FFE7069800780007002828
:1030E00049D5FFE70698406910B3FFE741F2940124
:1030F000C4F20201086840F001000860FEF720F900
:103100000590FFE741F29400C4F2020000688007D6
:1031100000280CD4FFE7FEF713F90599401A03289D
:1031200004D3FFE703208DF81F005CE2EAE721E00B
:1031300041F29401C4F20201086820F00100086025
:10314000FEF7FEF80590FFE741F29400C4F202009A
:103150000068800700280CD5FFE7FEF7F1F8059915
:10316000401A032804D3FFE703208DF81F003AE23A
:10317000EAE7FFE7FFE7069800784007002840F1FC
:10318000C680FFE700208DF80B0041F25800C4F222
:1031900002000068C000002813D4FFE7FFE741F2F7
:1031A0005800C4F20200016841F0805101600068DB
:1031B00000F0805001900198FFE701208DF80B008E
:1031C000FFE747F20000C4F200000068C0050028D5
:1031D00022D4FFE747F20001C4F20001086840F47E
:1031E00080700860FEF7ACF80590FFE747F200003A
:1031F000C4F200000068C00500280CD4FFE7FEF709
:103200009FF80599401A032804D3FFE703208DF89F
:103210001F00E8E1EAE7FFE7FFE70698806801287A
:1032200009D1FFE741F29001C4F20201086840F0C1
:10323000010008601FE00698806805280DD1FFE7AF
:1032400041F29001C4F20201086840F004000860F5
:10325000086840F0010008600CE041F29001C4F2FF
:103260000201086820F001000860086820F00400EE
:103270000860FFE7FFE7FFE706988068E0B1FFE737
:10328000FEF75EF80590FFE741F29000C4F20200FD
:103290000068800700280ED4FFE7FEF751F8059973
:1032A000401A41F28931884204D3FFE703208DF8A8
:1032B0001F0098E1E8E71BE0FEF742F80590FFE702
:1032C00041F29000C4F202000068800700280ED589
:1032D000FFE7FEF735F80599401A41F28931884237
:1032E00004D3FFE703208DF81F007CE1E8E7FFE748
:1032F0009DF80B00012809D1FFE741F25801C4F203
:103300000201086820F080500860FFE7FFE7069898
:1033100000788006002849D5FFE70698806910B339
:10332000FFE741F29801C4F20201086840F0010091
:103330000860FEF705F80590FFE741F29800C4F237
:1033400002000068800700280CD4FFE7FDF7F8FFB3
:103350000599401A032804D3FFE703208DF81F00C6
:1033600041E1EAE721E041F29801C4F20201086874
:1033700020F001000860FDF7E3FF0590FFE741F250
:103380009800C4F202000068800700280CD5FFE70F
:10339000FDF7D6FF0599401A032804D3FFE7032061
:1033A0008DF81F001FE1EAE7FFE7FFE70698C06915
:1033B000002800F01481FFE741F20800C4F2020087
:1033C000006800F00C000C2800F0B080FFE70698C1
:1033D000C06902287CD1FFE741F20001C4F202017A
:1033E000086820F080700860FDF7AAFF0590FFE7ED
:1033F00041F20000C4F202000068800100280CD5F0
:10340000FFE7FDF79DFF0599401A032804D3FFE766
:1034100003208DF81F00E6E0EAE741F20C01C4F258
:103420000201086848F20C02C0F29F121040DDF859
:1034300018C0DCF82020DCF82450DCF828E0DCF8A8
:103440002C306FF00F0404EB0514224342EA0E22E5
:10345000DCF8304040F2000ECFF6E07E0EEA045E6B
:10346000AEF5001E42EA0E02DCF834E04FF07E4C6E
:103470000CEA0E6C0CF17E4C42EA0C0242EAC3628A
:103480001043086041F20002C4F20202106840F0EA
:1034900080701060086840F080700860FDF750FF91
:1034A0000590FFE741F20000C4F2020000688001CD
:1034B00000280CD4FFE7FDF743FF0599401A0328C5
:1034C00004D3FFE703208DF81F008CE0EAE72CE02F
:1034D00041F20001C4F20201086820F08070086027
:1034E000FDF72EFF0590FFE741F20000C4F2020055
:1034F0000068800100280CD5FFE7FDF721FF059942
:10350000401A032804D3FFE703208DF81F006AE068
:10351000EAE741F20C01C4F2020108684FF6FC72BE
:10352000CFF6EE6210400860FFE757E00698C069EA
:10353000012804D1FFE701208DF81F0053E041F27C
:103540000C00C4F2020000680390039800F003002E
:103550000699096A88423BD1FFE7039800F0F00022
:1035600006994A6A6FF00F0101EB021188422FD1D0
:10357000FFE7039800F4FE400699896AB0EB012F3B
:1035800026D1FFE7039800F078400699C96AB0EBAE
:10359000C16F1DD1FFE7039800F4C00006990A6BC4
:1035A0000021CFF6E07101EA0251A1F50011884235
:1035B0000ED1FFE7039800F0C06006994A6B4FF008
:1035C0007E4101EA026101F17E41884204D0FFE7B9
:1035D00001208DF81F0006E0FFE7FFE7FFE700206E
:1035E0008DF81F00FFE79DF81F0008B0B0BD000078
:1035F00080B582B00190019801F024FB02B080BD3B
:1036000083B00190FFE7019890F88400012804D16D
:10361000FFE702208DF80B002CE00199012081F8D2
:103620008400FFE7FFE701992420C1F88800019892
:1036300000680068009001980168086820F00100A7
:103640000860009820F00050009001990020486622
:10365000009801990968086001992020C1F8880044
:10366000FFE70199002081F88400FFE700208DF832
:103670000B00FFE79DF80B0003B0704782B001908C
:10368000ADF8021002B0704781B0009001B07047F1
:1036900080B584B002900191FFE7029890F8840011
:1036A000012804D1FFE702208DF80F0032E00299D3
:1036B000012081F88400FFE7FFE702992420C1F888
:1036C0008800029800680068009002980168086805
:1036D00020F00100086002980068806820F06060B7
:1036E00001990843029909688860029801F020FB5B
:1036F000009802990968086002992020C1F88800A2
:10370000FFE70299002081F88400FFE700208DF890
:103710000F00FFE79DF80F0004B080BD80B584B0B6
:1037200002900191FFE7029890F88400012804D1EB
:10373000FFE702208DF80F0032E00299012081F8A6
:103740008400FFE7FFE702992420C1F8880002986F
:1037500000680068009002980168086820F0010085
:10376000086002980068806820F060400199084372
:10377000029909688860029801F0DAFA00980299C3
:103780000968086002992020C1F88800FFE70299C3
:10379000002081F88400FFE700208DF80F00FFE78C
:1037A0009DF80F0004B080BD81B0009001B070475B
:1037B00081B0009001B0704780B586B00490049845
:1037C000D0F8880003900498D0F88C0002900498F8
:1037D000006880680006002836D5FFE70398212896
:1037E00032D1FFE7FFE7FFE70498006850E8020FD7
:1037F00020F080000190FFE701990498026842E8F8
:1038000002100028F0D1FFE7FFE70498C06FB8B1BD
:10381000FFE70498C06FFDF711F980B1FFE7049846
:10382000C06FFDF7BBF9202808D1FFE704991020ED
:10383000C1F8900003208DF8170049E0FFE7FFE78B
:10384000049801F0A7FDFFE704980068806840062F
:10385000002839D5FFE70298222835D1FFE7FFE796
:10386000FFE70498006850E8020F20F04000009045
:10387000FFE700990498026842E802100028F0D19E
:10388000FFE7FFE70498D0F88000C8B1FFE704988D
:10389000D0F88000FDF7D2F888B1FFE70498D0F89F
:1038A0008000FDF77BF9202808D1FFE7049910205C
:1038B000C1F8900003208DF8170009E0FFE7FFE74B
:1038C000049801F0F5FCFFE700208DF81700FFE7F2
:1038D0009DF8170006B080BD81B0009001B0704720
:1038E00080B590B00F900F980068C0690E900F9847
:1038F000006800680D900F98006880680C900E9822
:1039000040F60F0108400B900B98E0B9FFE79DF8D7
:1039100038008006002815D5FFE79DF834008006A2
:10392000002806D4FFE79DF83300C006002809D51B
:10393000FFE70F98406F20B1FFE70F98416F88476E
:10394000FFE77AE2FFE70B98002800F00C81FFE721
:103950000C980121C1F20001084209D1FFE70D983E
:1039600040F22011C0F20041084200F0FC80FFE765
:103970009DF83800C00788B1FFE79DF83500C00703
:1039800060B1FFE70F980168012008620F99D1F834
:10399000900040F00100C1F89000FFE79DF838006A
:1039A0008007002811D5FFE79DF83000C00760B1FF
:1039B000FFE70F980168022008620F99D1F8900084
:1039C00040F00400C1F89000FFE79DF83800400780
:1039D000002811D5FFE79DF83000C00760B1FFE770
:1039E0000F980168042008620F99D1F8900040F008
:1039F0000200C1F89000FFE79DF83800000700289A
:103A000019D5FFE79DF834008006002807D4FFE7AA
:103A10000C980121C1F2000108420CD0FFE70F9879
:103A20000168082008620F99D1F8900040F0080062
:103A3000C1F89000FFE79DF839000007002813D572
:103A4000FFE79DF83700400700280DD5FFE70F98E6
:103A500001684FF4006008620F99D1F8900040F0BF
:103A60002000C1F89000FFE70F98D0F890000028E0
:103A700078D0FFE79DF838008006002815D5FFE7CD
:103A80009DF834008006002806D4FFE79DF8330037
:103A9000C006002809D5FFE70F98406F20B1FFE767
:103AA0000F98416F8847FFE7FFE70F98D0F8900025
:103AB0000A900F980068806800F04000402806D007
:103AC000FFE79DF8280010F0280F42D0FFE70F987D
:103AD00001F0EEFB0F98006880684006002833D59F
:103AE000FFE7FFE7FFE70F98006850E8020F20F0BC
:103AF00040000990FFE709990F98026842E8021018
:103B00000028F0D1FFE7FFE70F98D0F88000B0B1B0
:103B1000FFE70F98D0F8801045F24900C0F600008A
:103B200088630F98D0F88000FCF7D6FF30B1FFE72C
:103B30000F98D0F88000816B8847FFE703E00F986B
:103B4000FFF7CAFEFFE703E00F98FFF7C5FEFFE7A8
:103B500007E00F98FFF7C0FE0F990020C1F8900012
:103B6000FFE7FFE769E10F98C06E012840F006818A
:103B7000FFE79DF83800C006002840F1FF80FFE70E
:103B80009DF83400C006002840F1F880FFE70F9848
:103B90000168102008620F980068806840060028BD
:103BA00040F18A80FFE70F98D0F8800000684068F5
:103BB000ADF82200BDF8220000287CD0FFE7BDF858
:103BC00022000F99B1F85C10884274DAFFE7BDF863
:103BD00022000F99A1F85E000F98D0F880000068CD
:103BE00000688006002859D4FFE7FFE7FFE70F9839
:103BF000006850E8000F20F480700790FFE70799F5
:103C00000F98026842E800100028F0D1FFE7FFE7B4
:103C1000FFE7FFE70F98006850E8020F20F001006F
:103C20000690FFE706990F98026842E80210002804
:103C3000F0D1FFE7FFE7FFE7FFE70F98006850E8E4
:103C4000020F20F040000590FFE705990F980268E9
:103C500042E802100028F0D1FFE7FFE70F9920208B
:103C6000C1F88C000F990020C866FFE7FFE70F98A6
:103C7000006850E8000F20F010000490FFE704995E
:103C80000F98026842E800100028F0D1FFE7FFE734
:103C90000F98D0F88000FCF7D1FEFFE70F990220C3
:103CA00008670F98B0F85C10B0F85E20891A89B2E6
:103CB000FFF7E4FCFFE7C0E00F99B1F85C00B1F852
:103CC0005E10401AADF80E000F98B0F85E000028A4
:103CD00053D0FFE7BDF80E0000284ED0FFE7FFE706
:103CE000FFE70F98006850E8000F20F490700290F2
:103CF000FFE702990F98026842E800100028F0D10F
:103D0000FFE7FFE7FFE7FFE70F98006850E8020FC3
:103D10004FF6FE71CEF6FF7108400190FFE7019962
:103D20000F98026842E802100028EDD1FFE7FFE794
:103D30000F992020C1F88C000F990020C8660F99B8
:103D40004867FFE7FFE70F98006850E8000F20F092
:103D500010000090FFE700990F98026842E80010F9
:103D60000028F0D1FFE7FFE70F99022008670F98BE
:103D7000BDF80E10FFF782FCFFE75EE09DF83A0009
:103D8000C00600280FD5FFE79DF832004006002846
:103D900009D5FFE70F9801684FF4801008620F986B
:103DA000FFF706FD49E09DF838000006002815D50C
:103DB000FFE79DF834000006002806D4FFE79DF8D1
:103DC00032000006002809D5FFE70F98806F20B168
:103DD000FFE70F98816F8847FFE72EE09DF83800D6
:103DE000400600280AD5FFE79DF834004006002869
:103DF00004D5FFE70F9801F0ABFA1EE09DF83A00FA
:103E0000000600280AD5FFE79DF837004006002885
:103E100004D5FFE70F98FFF7C7FC0EE09DF83B00C5
:103E2000C00750B1FFE79DF837000006002804D511
:103E3000FFE70F98FFF728FCFFE710B080BD0000F8
:103E400080B582B00090009820B9FFE701208DF87E
:103E5000070046E00098806908B1FFE700E0FFE74F
:103E60000098D0F8880040B9FFE70099002081F859
:103E70008400009800F03AF8FFE700992420C1F888
:103E8000880000980168086820F001000860009828
:103E9000806A20B1FFE7009800F08EFFFFE70098EE
:103EA00001F0A6FA012804D1FFE701208DF80700F0
:103EB00017E000980168486820F490404860009836
:103EC0000168886820F02A00886000980168086806
:103ED00040F001000860009801F012F88DF807002A
:103EE000FFE79DF8070002B080BD000080B5A0B0DC
:103EF0001F9000201E901D901C901B901A9005A8EA
:103F00005421FCF7CFF91F98006843F60001C4F272
:103F10000101884240F09580FFE7012005900020D4
:103F2000069005A8FEF7B6FA18B1FFE7FCF766FDA4
:103F3000FFE7FFE741F26000C4F20200016841F4CC
:103F400080410160006800F4804004900498FFE71D
:103F5000FFE741F24C00C4F20200016841F00101A8
:103F60000160006800F0010003900398FFE74FF440
:103F7000C0601A9002201B9001201C9003201D900D
:103F800007201E904FF090401AA9FCF7E3FF40F67F
:103F90000810C2F2000002900821C4F20201016080
:103FA0001821416000218160C1608022026141616D
:103FB0008161C1614FF440510162FCF7A1FE18B16B
:103FC000FFE7FCF71BFDFFE7FFE71F9840F608112E
:103FD000C2F20001C0F880101F988862FFE740F627
:103FE0006810C2F2000001901C21C4F202010160BD
:103FF00019214160102181600021C160802202618D
:1040000041618161C1614FF440510162FCF778FE6A
:1040100018B1FFE7FCF7F2FCFFE7FFE71F9840F657
:104020006811C2F20001C1671F988862FFE725206E
:10403000009000221146FDF721FA0098FDF714FACE
:10404000FFE720B080BD000080B586B004900391EA
:10405000ADF80A200498D0F88C0020283CD1FFE766
:10406000039820B1FFE7BDF80A0020B9FFE701205F
:104070008DF8170034E004990020C86604980068A1
:1040800048F20001C4F2000188421CD0FFE7049806
:10409000006840680002002814D5FFE7FFE7FFE74B
:1040A0000498006850E8000F40F080600190FFE73E
:1040B00001990498026842E800100028F0D1FFE757
:1040C000FFE7FFE7FFE704980399BDF80A2001F036
:1040D00081FC8DF8170003E002208DF81700FFE740
:1040E0009DF8170006B080BD81B0009001B0704708
:1040F00081B0009001B0704780B586B00490039104
:10410000ADF80A200498D0F88800202870D1FFE785
:10411000039820B1FFE7BDF80A0020B9FFE70120AE
:104120008DF8170068E0039804990865BDF80A0047
:104130000499A1F85400BDF80A000499A1F85600AA
:1041400004990020C1F8900004992120C1F888004A
:104150000498C06F88B3FFE70498C16F45F21D2033
:10416000C0F60000C8620498C16F45F29920C0F6FD
:10417000000008630498C16F45F26D00C0F60000AE
:1041800048630498C16F0020886304980268016D39
:10419000C06F2832BDF80A30FCF75EFE60B1FFE761
:1041A00004991020C1F8900004992020C1F88800DB
:1041B00001208DF817001FE0FFE7049801684020F8
:1041C0000862FFE7FFE70498006850E8020F40F03C
:1041D00080000190FFE701990498026842E802100C
:1041E0000028F0D1FFE7FFE700208DF8170003E07B
:1041F00002208DF81700FFE79DF8170006B080BD7C
:1042000081B0009001B0704781B0009001B070475C
:10421000FFE7FEE780B586B0FFE741F24800C4F251
:104220000200016841F004010160006800F0040030
:1042300005900598FFE7FFE741F24800C4F202004D
:10424000016841F001010160006800F00100049084
:104250000498FFE70B200190002202921146FDF71F
:104260000DF90198FDF700F9029A0C200390114610
:10427000FDF704F90398FDF7F7F806B080BD0000DC
:1042800080B58EB000200D900C900B900A90099094
:10429000FFE741F24C00C4F20200016841F0040162
:1042A0000160006800F0040008900898FFE7FFE74D
:1042B00041F24C00C4F20200016841F020010160AB
:1042C000006800F0200007900798FFE7FFE741F241
:1042D0004C00C4F20200016841F001010160006875
:1042E00000F0010006900698FFE7FFE741F24C005E
:1042F000C4F20200016841F002010160006800F0B0
:10430000020005900598FFE740F60000C4F60000A3
:1043100002904FF40051019100220392FCF7FAFF42
:10432000019A02980399099201220A920B920C9128
:1043300009A90491FCF70EFE039804994FF48072CA
:1043400009920A9002200B9040F20040C4F600004F
:10435000FCF700FE0EB080BD80B582B040F6A440F0
:10436000C2F20000009043F60001C4F201010160B6
:1043700048F28041C0F21E0141600021019181603C
:10438000C16001610C2242618161C16101624162CF
:104390008162FFF755FD18B1FFE7FCF72FFBFFE740
:1043A00040F6A440C2F200000021FFF7B7F918B1AF
:1043B000FFE7FCF723FBFFE740F6A440C2F2000052
:1043C0000021FFF765F918B1FFE7FCF717FBFFE7DE
:1043D00040F6A440C2F20000FFF712F918B1FFE75F
:1043E000FCF70CFBFFE702B080BD000080B582B097
:1043F00040F6C810C2F20000019045F60041C4F238
:10440000000101600821017102214171C171002187
:10441000017241728172C172FDF714FE18B1FFE79B
:10442000FCF7ECFAFFE702B080BD0000FFE7FEE713
:10443000FFE7FEE788B0079006910592079800F025
:10444000070004900498C0F10700052803D3FFE794
:104450000420019004E00498C0F107000190FFE7F8
:104460000198039004980430062803D8FFE7002041
:10447000009003E0049803380090FFE70098029052
:1044800006980399012202FA01F101390840029BC2
:10449000984005999A40013A1140084308B0704786
:1044A00080B596B01590FFE715980068B0F8440005
:1044B0000004002840F17083FFE715980068B0F809
:1044C0004400ADF84C00BDF84C0000F00F008DF832
:1044D00047009DF84700002840F05381FFE7BDF8F2
:1044E0004C00C006002842D4FFE7FFE7159800689B
:1044F000008848F60F710840ADF84400BDF844004C
:1045000040F40040159909680880FFE715981030BD
:10451000149015980068B0F8500014990A7800EBD0
:10452000C200159A12681044B0F802046FF39F207D
:10453000C86114994869CA691044486115980021F6
:10454000FCF7E0FF1598007B80B1FFE714988069C5
:1045500060B9FFE71598007B40F080001599096865
:10456000A1F84C00159900200873FFE708E11598A1
:1045700000F5A8701490159800680088ADF84A00FE
:10458000BDF84A00000500282ED5FFE71598006801
:10459000B0F8500014990A7800EBC200159A12681E
:1045A0001044B0F806046FF39F20C861159908689D
:1045B00001F52671149BDA889B8B02F013FFFFE74D
:1045C00015980068008840F68F710840ADF84200E9
:1045D000BDF8420040F08000159909680880FFE7A7
:1045E0001598FDF76BFECAE0BDF84A0000040028EC
:1045F00040F1C480FFE7FFE715980068008840F6A7
:104600008F710840ADF84000BDF8400040F08000D8
:10461000159909680880FFE715980068B0F8500000
:1046200014990A7800EBC200159A12681044B0F889
:1046300006046FF39F20C8611498C069B0B1FFE70A
:104640001498406990B1FFE715980068149B596968
:10465000DA889B8B02F0C6FE14994869CA69104437
:10466000486115980021FCF753FFFFE71598006893
:104670000088ADF84A00BDF84A00000500287CD447
:10468000FFE7BDF84A0000F44050B0F5405F74D039
:10469000FFE7FFE7159800680F9015980068B0F8DD
:1046A00050100F9808440F900F9800F206400E909B
:1046B000FFE70E9908886FF39F200880149800691F
:1046C0003F2818D3FFE7FFE71498006940090D90D1
:1046D0001498007CC00620B9FFE70D9801380D90B2
:1046E000FFE70D9A0E99088840EA822040F40040C6
:1046F0000880FFE720E01498006930B9FFE70E99C1
:10470000088840F40040088015E0FFE7149800692D
:1047100040080D901498007CC00720B1FFE70D9869
:1047200001300D90FFE70D9A0E99088840EA82202B
:104730000880FFE7FFE7FFE7FFE7FFE7FFE71598E0
:10474000006800884BF68F710840ADF83200BDF864
:10475000320080F48050ADF83200BDF8320080F4B1
:104760000050ADF83200BDF8320048F28001084335
:10477000159909680880FFE7FFE7FFE7FFE7FFE714
:1047800008E2159800689DF8471030F82100ADF850
:104790004A00BDF84A000004002840F1DE80FFE72F
:1047A000FFE7159800689DF8471030F8210040F6A3
:1047B0008F710840ADF83000BDF8300040F0800047
:1047C000159909689DF8472021F82200FFE7159800
:1047D0009DF8471001EB810100EBC10000F5A870C6
:1047E00014901498007B00BBFFE715980068B0F8A0
:1047F00050001499097800EBC10015990968084424
:10480000B0F806046FF39F20ADF84E00BDF84E00DF
:1048100050B1FFE715980068149A5169D288BDF825
:104820004E3002F0DFFDFFE773E01498C0780228F5
:1048300009D1FFE715981499BDF84A20FCF76EFEE0
:10484000ADF84E0064E0FFE7FFE7159800681499A3
:10485000097830F8210048F68F710840ADF82E0035
:10486000BDF82E0048F2C001084315990968149A52
:10487000127821F82200FFE7FFE7159800681499E5
:10488000097830F821004004002820D5FFE715986A
:104890000068B0F850001499097800EBC100159930
:1048A00009680844B0F802046FF39F20ADF84E0089
:1048B000BDF84E0050B1FFE715980068149A516991
:1048C0001289BDF84E3002F08DFDFFE71FE015980C
:1048D0000068B0F850001499097800EBC1001599F0
:1048E00009680844B0F806046FF39F20ADF84E0045
:1048F000BDF84E0050B1FFE715980068149A516951
:104900005289BDF84E3002F06DFDFFE7FFE7FFE78B
:10491000FFE7BDF84E201499C8691044C861BDF87E
:104920004E2014994869104448611498806938B140
:10493000FFE7BDF84E0014990969884206D2FFE7E7
:10494000159814990978FCF7E3FD05E015980068BF
:10495000149901F025FEFFE7FFE7BDF84A000006C5
:10496000002840F11681FFE715989DF8471001EBEC
:10497000810100EBC10010301490FFE7159800682A
:104980009DF8471030F8210048F60F710840ADF847
:104990002C00BDF82C0040F40040159909689DF8E2
:1049A000472021F82200FFE71498C078012840F042
:1049B000A180FFE71499002088611498007B0028EB
:1049C00000F09280FFE7BDF84A004006002846D577
:1049D000FFE7FFE71498407808BBFFE7FFE715986B
:1049E00000680A9015980068B0F850100A980844BA
:1049F0000A900A981499097800EBC10000F202406D
:104A00000990FFE7099908886FF39F2008800999AA
:104A1000088840F400400880FFE7FFE71DE0149895
:104A20004078012818D1FFE7FFE715980068079044
:104A300015980068B0F85010079808440790079838
:104A40001499097800EBC10000F202400690069923
:104A500000200880FFE7FFE7FFE7FFE743E0FFE70D
:104A60001598006805901498407808BBFFE7FFE7A9
:104A700015980068039015980068B0F850100398D6
:104A80000844039003981499097800EBC10000F2E0
:104A900006400290FFE7029908886FF39F20088084
:104AA0000299088840F400400880FFE7FFE718E01B
:104AB00014984078012813D1FFE715980068B0F8E2
:104AC000501005980844059005981499097800EB52
:104AD000C10000F206400490049900200880FFE71E
:104AE000FFE7FFE7FFE7FFE7159814990978FCF760
:104AF00009FD4DE0BDF84A00C005002840D4FFE79D
:104B000015980068B0F850001499097800EBC100BE
:104B1000159909680844B0F802046FF39F20ADF8B6
:104B2000480014988069BDF84810884207D9FFE70B
:104B3000BDF8482014998869801A886103E01499A7
:104B400000208861FFE71498806930B9FFE7159865
:104B500014990978FCF7D6FC11E0BDF848201499A7
:104B6000486910444861BDF848201499C869104448
:104B7000C86115980068149901F012FDFFE706E07E
:104B800015981499BDF84A20FCF7C4FDFFE7FFE72C
:104B9000FFE7FFE7FFF788BC002016B080BD0000EC
:104BA0007047000086B041F20C00C4F202000168B8
:104BB00001F0030104910068C1B2012000EB111063
:104BC000029004980090022815D0FFE7009803286F
:104BD00012D1FFE7029941F60030C0F2B700B0FBF6
:104BE000F1F041F20C01C4F202010968C1F306219F
:104BF0004843059011E0FFE7029942F20040C0F2FD
:104C0000F400B0FBF1F041F20C01C4F202010968BA
:104C1000C1F3062148430590FFE741F20C00C4F2BE
:104C20000200006800F0C061022000EB11600390F8
:104C300005980399B0FBF1F00190019806B0704718
:104C40007047000080B582B0009000980138B0F144
:104C5000807F03D3FFE70120019019E0009801381D
:104C60004EF21401CEF2000108604FF0FF300F2128
:104C700002F06AFC4EF21801CEF20001002008603A
:104C80004EF21002CEF20002072111600190FFE700
:104C9000019802B080BD000080B5FCF757FB80BDD5
:104CA00080B594B006A800903821FBF7FBFA0020ED
:104CB00005900490039002900190FDF707FB009887
:104CC000222106914FF48071099140210A9101211E
:104CD0000C9102210D910E9104220F9255221092F7
:104CE0001191082212921391FEF7A6F818B1FFE76E
:104CF000FBF784FEFFE70F200190032002900020C5
:104D000003900490059001A80421FDF755FE18B109
:104D1000FFE7FBF773FEFFE714B080BD4EF6885146
:104D2000CEF20001086840F470000860704700008F
:104D300082B001900198406E40B9FFE701990120CF
:104D4000A1F86A000199A1F8680032E008208DF806
:104D500003008DF80200019800688068C0F342608B
:104D60008DF80100019800688068400F8DF8000000
:104D70009DF802009DF800204BF2C863C0F60003C6
:104D8000995C48434BF2C061C0F600018A5CB0FBFD
:104D9000F2F0019AA2F86A009DF803009DF8012044
:104DA0009B5C5843895CB0FBF1F00199A1F8680065
:104DB000FFE702B07047000081B00090009890F8C3
:104DC0002800000700280BD5FFE70098006840681E
:104DD00020F40040009A1168926B10434860FFE78E
:104DE000009890F82800C00758B1FFE700980068C5
:104DF000406820F40030009A1168D26A104348607D
:104E0000FFE7009890F82800800700280BD5FFE7FF
:104E100000980068406820F48030009A1168126B96
:104E200010434860FFE7009890F8280040070028EA
:104E30000BD5FFE700980068406820F48020009AB6
:104E40001168526B10434860FFE7009890F8280003
:104E5000C00600280BD5FFE700980068806820F4A2
:104E60008050009A1168D26B10438860FFE7009869
:104E700090F82800800600280BD5FFE7009800680E
:104E8000806820F40050009A1168126C104388600A
:104E9000FFE7009890F82800400600281CD5FFE79F
:104EA00000980068406820F48010009A1168526CE5
:104EB000104348600098406CB0F5801F0BD1FFE7AD
:104EC00000980068406820F4C000009A1168926C55
:104ED00010434860FFE7FFE7009890F828000006BD
:104EE00000280BD5FFE700980068406820F40020F8
:104EF000009A1168D26C10434860FFE701B0704718
:104F000080B588B0069006990020C1F89000FCF7A3
:104F100017FA0590069800680068000700282FD54A
:104F2000FFE70698059B6A466FF07E4111604FF4DB
:104F30000011002200F0E6FD08B3FFE7FFE7FFE7FE
:104F40000698006850E8000F20F080000490FFE70A
:104F500004990698026842E800100028F0D1FFE7A3
:104F6000FFE706992020C1F88800FFE70699002096
:104F700081F88400FFE703208DF81F005FE0FFE762
:104F80000698006800684007002842D5FFE70698A9
:104F9000059B6A466FF07E4111604FF4800100224C
:104FA00000F0B0FDA0B3FFE7FFE7FFE70698006859
:104FB00050E8000F20F490700390FFE703990698E3
:104FC000026842E800100028F0D1FFE7FFE7FFE7A2
:104FD000FFE70698006850E8020F20F001000290F9
:104FE000FFE702990698026842E802100028F0D113
:104FF000FFE7FFE706992020C1F88C00FFE706993C
:10500000002081F88400FFE703208DF81F0016E0E0
:10501000FFE706992020C1F888000699C1F88C00A6
:1050200006990020C86606990867FFE706990020E0
:1050300081F88400FFE700208DF81F00FFE79DF84E
:105040001F0008B080BD000080B582B001900198BB
:10505000806A009000990020A1F85E000099A1F8F4
:1050600056000098FEF738FC02B080BD80B584B0D1
:1050700003900398806A02900298D0F8880001900B
:105080000298D0F88C0000900298006880680006B2
:1050900000280CD5FFE70198212808D1FFE70299E5
:1050A0000020A1F85600029800F074F9FFE702987A
:1050B00000688068400600280CD5FFE70098222889
:1050C00008D1FFE702990020A1F85E00029800F0E5
:1050D000EFF8FFE70299D1F8900040F01000C1F816
:1050E00090000298FEF7F8FB04B080BD80B586B052
:1050F00005900598806A049005980068006880060D
:1051000000285BD4FFE704990020A1F85E00FFE7C8
:10511000FFE70498006850E8000F20F480700390C7
:10512000FFE703990498026842E800100028F0D1D4
:10513000FFE7FFE7FFE7FFE70498006850E8020F8A
:1051400020F001000290FFE702990498026842E80B
:1051500002100028F0D1FFE7FFE7FFE7FFE7049820
:10516000006850E8020F20F040000190FFE701992D
:105170000498026842E802100028F0D1FFE7FFE738
:1051800004992020C1F88C000498C06E012814D125
:10519000FFE7FFE7FFE70498006850E8000F20F002
:1051A00010000090FFE700990498026842E80010A0
:1051B0000028F0D1FFE7FFE7FFE7FFE704990020B1
:1051C00008670498C06E012806D1FFE70498B0F87C
:1051D0005C10FEF753FA03E00498FEF785FFFFE743
:1051E00006B080BD80B582B001900198806A0090C1
:1051F0000099012008670098C06E012807D1FFE7D9
:105200000098B0F85C104908FEF738FA03E00098FF
:10521000FEF76EFFFFE702B080BD000080B584B0EE
:1052200003900398806A02900398006800688006E3
:1052300000282BD4FFE702990020A1F85600FFE7D1
:10524000FFE70298006850E8020F20F0800001900C
:10525000FFE701990298026842E802100028F0D1A5
:10526000FFE7FFE7FFE7FFE70298006850E8000F5D
:1052700040F040000090FFE700990298026842E881
:1052800000100028F0D1FFE7FFE703E00298FEF7E7
:10529000B7FFFFE704B080BD80B582B001900198F0
:1052A000806A00900098FEF7AFFF02B080BD00005A
:1052B00084B00390FFE7FFE70398006850E8000F11
:1052C00020F490700290FFE702990398026842E888
:1052D00000100028F0D1FFE7FFE7FFE7FFE70398A2
:1052E000006850E8020F4FF6FE71CEF6FF710840DD
:1052F0000190FFE701990398026842E80210002834
:10530000EDD1FFE7FFE70398C06E012814D1FFE756
:10531000FFE7FFE70398006850E8000F20F0100057
:105320000090FFE700990398026842E80010002807
:10533000F0D1FFE7FFE7FFE703992020C1F88C00D9
:1053400003990020C8660399486704B070470000BD
:1053500080B582B00190FFE7FFE70198006850E850
:10536000000F20F040000090FFE7009901980268CC
:1053700042E800100028F0D1FFE7FFE70199202064
:10538000C1F888000199002088670198FEF738FF6E
:1053900002B080BD83B00290FFE7FFE7029800688B
:1053A00050E8000F20F0C0000190FFE7019902983B
:1053B000026842E800100028F0D1FFE7FFE7FFE7AE
:1053C000FFE70298006850E8020F20F40000009008
:1053D000FFE700990298026842E802100028F0D125
:1053E000FFE7FFE702992020C1F8880003B070476B
:1053F00080B592B0119000208DF8370011980068A8
:1054000048F20001C4F20001884201D1FFE700E048
:10541000FFE7119988680B694A69C9691843104305
:105420000843109011980068006846F6F311CCF616
:10543000FF71084010990843119909680860119894
:105440000068406820F44050119A1168D2681043F7
:1054500048601198806910901198006848F2000126
:10546000C4F20001884206D0FFE71198016A109843
:1054700008431090FFE71198006880684FF2FF41E1
:10548000C1F2FF110840109908431199096888601A
:1054900011980068C06A20F00F00119A1168526AD2
:1054A0001043C862FFE71198006843F60001C4F298
:1054B0000101884225D1FFE741F28800C4F20200D1
:1054C000006800F0030001460A91032814D80A99E5
:1054D000DFE801F0020A060E01208DF83D000FE022
:1054E00002208DF83D000BE004208DF83D0007E020
:1054F00008208DF83D0003E010208DF83D00FFE707
:1055000015E11198006844F20041C4F2000188429C
:105510002AD1FFE741F28800C4F20200006800F0DF
:105520000C00014609910C2819D80999DFE801F00F
:10553000071717170F1717170B1717171300002048
:105540008DF83D000FE002208DF83D000BE00420B7
:105550008DF83D0007E008208DF83D0003E01020A5
:105560008DF83D00FFE7E1E01198006844F6000186
:10557000C4F2000188422CD1FFE741F28800C4F256
:105580000200006800F030000146089160B1FFE7BA
:105590000898102810D0FFE70898202808D0FFE7C7
:1055A000089830280CD00FE000208DF83D000FE067
:1055B00002208DF83D000BE004208DF83D0007E04F
:1055C00008208DF83D0003E010208DF83D00FFE736
:1055D000ABE01198006844F60041C4F20001884233
:1055E0002CD1FFE741F28800C4F20200006800F00D
:1055F000C0000146079160B1FFE70798402810D02E
:10560000FFE70798802808D0FFE70798C0280CD04C
:105610000FE000208DF83D000FE002208DF83D00E6
:105620000BE004208DF83D0007E008208DF83D00D8
:1056300003E010208DF83D00FFE775E01198006849
:1056400045F20001C4F2000188422FD1FFE741F288
:105650008800C4F20200006800F440700146069120
:1056600078B1FFE70698B0F5807F12D0FFE7069883
:10567000B0F5007F09D0FFE70698B0F5407F0CD069
:105680000FE000208DF83D000FE002208DF83D0076
:105690000BE004208DF83D0007E008208DF83D0068
:1056A00003E010208DF83D00FFE73CE01198006812
:1056B00048F20001C4F2000188422FD1FFE741F215
:1056C0008800C4F20200006800F4406001460591C1
:1056D00078B1FFE70598B0F5806F12D0FFE7059825
:1056E000B0F5006F09D0FFE70598B0F5406F0CD01A
:1056F0000FE000208DF83D000FE002208DF83D0006
:105700000BE004208DF83D0007E008208DF83D00F7
:1057100003E010208DF83D00FFE703E010208DF836
:105720003D00FFE7FFE7FFE7FFE7FFE7FFE7FFE7F2
:105730001198006848F20001C4F20001884240F06C
:105740007E80FFE79DF83D0001460491082819D8A6
:105750000499DFE801F0051709170F171717130051
:10576000FDF7C4FA0B9013E042F20040C0F2F400DF
:105770000B900DE0FDF7E2FA0B9009E04FF40040CA
:105780000B9005E000200B9001208DF83700FFE71B
:105790000B98002852D0FFE70B9811994A6A4BF2F8
:1057A000D061C0F6000131F81210B0FBF1F00C909E
:1057B0000C981199496801EB4101884207D3FFE732
:1057C0000C9811994968B0EB013F04D9FFE701201B
:1057D0008DF8370031E00B9811994A6802924A6AB5
:1057E0004BF2D061C0F6000131F812200023039380
:1057F0001946FAF70DFD029A039B090241EA10616E
:10580000000210EB520041F10001FAF701FD0E9089
:105810000E98B0F5407F0BD3FFE70E990020B0EB58
:10582000115F05D1FFE70E9811990968C86003E080
:1058300001208DF83700FFE7FFE7FFE7B9E0119897
:10584000C069B0F5004F61D1FFE79DF83D0001460A
:10585000019108281DD80199DFE801F005090D1B09
:10586000131B1B1B1700FDF741FA0B9017E0FDF708
:1058700051FA0B9013E042F20040C0F2F4000B909A
:105880000DE0FDF75BFA0B9009E04FF400400B9040
:1058900005E000200B9001208DF83700FFE70B9802
:1058A00098B3FFE70B98119A5168536A4BF2D06294
:1058B000C0F6000232F81320B0FBF2F0400000EB1B
:1058C0005100B0FBF1F00E900E98102818D3FFE7AE
:1058D000BDF83A00A0B9FFE70E9820F00F00ADF830
:1058E0003E000E9800F00E01BDF83E0040EA510067
:1058F000ADF83E00BDF83E0011990968C86003E0AC
:1059000001208DF83700FFE7FFE751E09DF83D00EB
:105910000146009108281DD80099DFE801F005092B
:105920000D1B131B1B1B1700FDF7E0F90B9017E075
:10593000FDF7F0F90B9013E042F20040C0F2F400E2
:105940000B900DE0FDF7FAF90B9009E04FF40040E1
:105950000B9005E000200B9001208DF83700FFE749
:105960000B9820B3FFE70B98119A5168536A4BF2DA
:10597000D062C0F6000232F81320B0FBF2F000EB68
:105980005100B0FBF1F00E900E9810280AD3FFE7FB
:10599000BDF83A0030B9FFE7BDF838001199096841
:1059A000C86003E001208DF83700FFE7FFE7FFE75D
:1059B000FFE711990120A1F86A001199A1F8680088
:1059C000119900204867119988679DF8370012B037
:1059D00080BD000080B588B006900591ADF812201A
:1059E000059806998865BDF812000699A1F85C0033
:1059F00006990020C1F8900006992220C1F88C0079
:105A00000698D0F88000B0B3FFE70698D0F8801071
:105A100045F2ED00C0F60000C8620698D0F880108C
:105A200045F2E510C0F6000008630698D0F8801033
:105A300045F26D00C0F6000048630698D0F880106B
:105A40000020886306980168826DD0F880002431B8
:105A5000BDF81230FBF700FA60B1FFE7069910209D
:105A6000C1F8900006992020C1F88C0001208DF823
:105A70001F0042E0FFE706980069A0B1FFE7FFE7DB
:105A8000FFE70698006850E8000F40F4807003902C
:105A9000FFE703990698026842E800100028F0D159
:105AA000FFE7FFE7FFE7FFE7FFE70698006850E83A
:105AB000020F40F001000290FFE702990698026889
:105AC00042E802100028F0D1FFE7FFE7FFE7FFE719
:105AD0000698006850E8020F40F040000190FFE790
